:020000040000fa
:102c0000d419040000000000aa180400000000000d
:102c1000d618040000000000ec18040000000000ba
:102c2000c018040000000000d419040000000000d7
:102c3000d419040000000000d419040000000000b2
:102c4000f038040000000000d41904000000000067
:102c5000d419040000000000042804000000000053
:102c6000d419040000000000d41904000000000082
:102c7000d419040000000000d41904000000000072
:102c8000d419040000000000d41904000000000062
:102c9000d419040000000000122704000000000006
:102ca0007826040000000000d41904000000000091
:102cb000d419040000000000d41904000000000032
:102cc000d419040000000000d41904000000000022
:102cd000d419040000000000d41904000000000012
:102ce000d419040000000000d41904000000000002
:102cf000d419040000000000d419040000000000f2
:102d0000d419040000000000d419040000000000e1
:102d1000d419040000000000d419040000000000d1
:102d20000219040000000000d41904000000000093
:102d3000d419040000000000d419040000000000b1
:102d4000d419040000000000d419040000000000a1
:102d5000d419040000000000d41904000000000091
:102d6000d4190400000000001c1904000000000039
:102d7000d419040000000000d41904000000000071
:102d8000d419040000000000d41904000000000061
:102d9000d419040000000000d41904000000000051
:102da000d419040000000000d41904000000000041
:102db000d419040000000000d41904000000000031
:102dc000d419040000000000d41904000000000021
:102dd000d419040000000000d41904000000000011
:102de000d419040000000000d41904000000000001
:102df000d419040000000000d419040000000000f1
:102e0000d419040000000000d419040000000000e0
:102e1000d419040000000000d419040000000000d0
:102e2000d419040000000000d419040000000000c0
:102e3000d419040000000000d419040000000000b0
:102e4000d419040000000000562604000000000011
:102e5000d419040000000000d41904000000000090
:102e6000d419040000000000d41904000000000080
:102e7000d419040000000000d41904000000000070
:102e8000d419040000000000d41904000000000060
:102e9000d419040000000000d41904000000000050
:102ea000d419040000000000d41904000000000040
:102eb000d419040000000000d41904000000000030
:102ec000d419040000000000d41904000000000020
:102ed000d419040000000000d41904000000000010
:102ee000d419040000000000d41904000000000000
:102ef000d419040000000000d419040000000000f0
:102f0000d419040000000000d419040000000000df
:102f1000d419040000000000d419040000000000cf
:102f2000d419040000000000d419040000000000bf
:102f3000d419040000000000d419040000000000af
:102f4000d419040000000000d4190400000000009f
:102f5000d419040000000000d4190400000000008f
:102f6000d419040000000000d4190400000000007f
:102f7000d419040000000000d4190400000000006f
:102f8000d419040000000000d4190400000000005f
:102f9000d419040000000000d4190400000000004f
:102fa000d419040000000000d4190400000000003f
:102fb000d419040000000000d4190400000000002f
:102fc000d419040000000000d4190400000000001f
:102fd000d419040000000000d4190400000000000f
:102fe000d419040000000000d419040000000000ff
:020000040000fa
:0430000010180000a4
:020000040000fa
:10302000cfb120000eef20000e018800000000004c
:10303000000020000000e00002003200000120003b
:10304000200288000c00070000002400010020007e
:1030500011000700000020000000e0000200320024
:103060000000020000000000243702000000000001
:103070000040da000000fe004440a90000112000da
:103080000000e0000300320000002000a0018800e2
:103090004440a800000006009101880080007800ec
:1030a0000000eb0015003700e280400032a0b400c1
:1030b0009101ba00e280400032a0b4009102ba004f
:1030c000e280400032a0b4000002eb00472bde009b
:1030d000f507b200602ce10004003a000059eb0053
:1030e0008301e900fdff3e00040037006128e10094
:1030f000010032000082eb00040007001101ba0059
:103100000200e000e8ff3a00000006003159ba0072
:103110008301e9000c0032002159ba008301e90063
:10312000080032000400e00003003a00e2804000a2
:1031300032a0b400f5ff370011d9ba008301e900cd
:10314000faff3a008100e800e180400032a0b400bc
:10315000000006003400f800881f780008002000f6
:10316000a80188004f0478008020a900074fa8001c
:10317000082fef000000fe003400f90000400600b8
:103180003400f800881f780008002000a80188009b
:103190004f0478008080a900074fa800082fef0097
:1031a0000000fe003400f900004006003400f80082
:1031b000881f780008002000a80188004f047800cc
:1031c0008060a900074fa800082fef000000fe0054
:1031d0003400f900004006003400f800881f780031
:1031e00008002000a80188004f0478008040a90052
:1031f000074fa800082fef000000fe003400f90080
:10320000004006003400f800881f78000800200005
:10321000a80188004f0478001421ef001821ef0066
:10322000e0afef00e22fef00e42fef008780a9006e
:103230003400f90000400600809fbe003400f80012
:1032400000002000a00188006400fc001fe1a9002c
:10325000a0088000c10880001421ef001821ef00b1
:103260001fe1a800107f8800217f880088a0a900a6
:103270000000fc003400f9004f00be0000400600d2
:10328000dc2fef00de2fef00e02fef00b005800015
:103290000003b3000060a100b00588005021ef00da
:1032a0005221ef002021ef001e21ef009005800049
:1032b0003000b3000020a100900588001e61a80026
:1032c000f00880000040a1000050a000f008880035
:1032d00000e02d0031002000d0088800e1088800bf
:1032e0008780a9009780a800800a800000a0a00025
:1032f00000b0a00000c0a000800a8800f0f92f00f4
:103300005021b600800a80003000b3000020a100e8
:10331000800a880088a0a9001fe1a80098a0a80042
:10332000000006005021ef005221ef00e02fef00d7
:103330008780a9009780a9001fe1a90088a0a900a3
:1033400098a0a900000006006400fc00e00fe20065
:1033500004003200e02fef00dc2fef00de2fef0043
:103360000f003700107f8000217f8000e00f5000a9
:10337000e08f580003003a00dc2fef00de2fef0053
:1033800007003700ed0007000001be0000002f001d
:1033900021b5240085000700e07e8800f17e8800ca
:1033a0000000fc00000006000040da000000fe0003
:1033b0003200f800910188000008bb00810524005c
:1033c0006210e10006003200910524006810e1005f
:1033d00003003200a10524007010e10009003a004a
:1033e000013b88000500fc0051052000313b8800ae
:1033f000a10a2000313b880061e7a800000000001e
:10340000000000003200f900000006003200f80061
:1034100000052400003b8800f2ff37003200f8006e
:103420009101880041002400013b88000208bb0094
:10343000ecff370003f0a200889fbe008a9fbe0009
:103440008c1f7800fa000700010133006450e1008e
:103450004f0032006420e1005200320003826c0011
:1034600007003b000905d0000306d000820f54007e
:103470000c065d000200390002003200890178006c
:10348000030678008582550004003d000003fd001e
:103490008103fd008502ea008b854200840f7200e3
:1034a00002003b0060001000e08018006011b800ce
:1034b0000005eb007a28e1000a00390006007800d8
:1034c000c75ddd00f707b200878075002d0037006b
:1034d000828171000a017800610560008180d1005d
:1034e0000080d3008502e900f9ff3b00060440009c
:1034f0008784480002003b0060041400e0841c0044
:103500000988a300070032008a817100828171005e
:10351000610164008904d1000884d3008b05e800b0
:10352000170037000978a30013003a000b00e000f1
:10353000130034008b05e9000804440089844c0022
:103540000a4474000978a3000d003a000b00e00063
:10355000070034008b05e9000804440089844c000e
:1035600001003a000b0020000978a300f7ff3200a9
:103570000001eb0002003700828171000a0178002f
:10358000700007000cf0a70001f0a000b9003700a0
:103590006420e10002003a00838f6c00b900330020
:1035a0000801be000200be00b2003700889fbe00c6
:1035b0008a9fbe008c1f78009d000700a400330086
:1035c00003866c006450e1002e0032006420e100ac
:1035d000330032006150e1002f0032006120e10031
:1035e0003100320085855500eb07b000090020004e
:1035f00008042000050037000804440089844c00ba
:103600000a0031000603430087834b00000153008a
:1036100081815b00f8ff33000203be000800a000b8
:103620000804440089844c00f6ff3900c639dd00e7
:103630008301730001003200130020008904d100cf
:103640000884d3000998a300050032000800a700f1
:103650000300a0008904d1000884d3008b05e80092
:103660008904d1000884d3000001eb000281d2005c
:103670003400070001f0a1000cf0a70001f0a00049
:103680007c0037006420e1007e0032000801be00ab
:103690000200be00f7ff37006120e1007900320030
:1036a0006000b800f3ff37000000200001f8270099
:1036b000f0ff370014002000ee003700f4ff2f0069
:1036c000ec0037000001be00440007000470a700b2
:1036d00003f0a10003f8a30013003a006509b1004c
:1036e00010003200090035006928e10002003500b1
:1036f0000100280000000500000040008180480013
:103700008502e900fcff3a0000000600f88f420045
:10371000050035008100d1000080d3008502e8005b
:10372000fcff3a00000006008000eb0000000500ee
:103730004f89de0082017800e90037006011b8008f
:10374000f700370081002000618055000b003d002c
:103750000b00200061fe2f000100e1001d0034007d
:1037600082817100610164008904d1000884d30062
:103770000000e800faff3a007100200061006400d8
:103780000300700002006000090032006104440080
:10379000e0844c000988a500050032008b05e80094
:1037a0006808e10002003a008904d1000884d300cf
:1037b000f20f20000258e10005003d00c75ddd006a
:1037c000f907b20089807500080078000000060043
:1037d0000bf827008b00780000000500c70ade0008
:1037e000f107b200f50fb20008003200e1cf42004d
:1037f000020032000170a00024000500810f70005b
:10380000010032000408050044000500810f70002b
:1038100002003a00140005008502e90000004000a3
:1038200081c04800fcff3b000170a000240005009f
:103830000004be00e9ff07000003be000405be004f
:103840000200be00e5ff0700844f7500000006007f
:103850000200be006450e100050036006420e10073
:10386000020036000968a30001003a000800be000b
:103870000160a0004f0678004f05be004f04be0057
:1038800000000600f0ff2f00f1ff2700f9ff3700ce
:10389000889fbe008a9fbe008c1f7800e4ff07004f
:1038a000ebff330003866c006450e100240032001b
:1038b0006420e100270032006150e1002200320064
:1038c0006120e100210032008b854200eb07b1004e
:1038d0000134b800003ab8000804420089844a0064
:1038e000013ab8000030b8008880400009014a0061
:1038f00004003300000040008180480002014900bc
:103900008b05e900c909dd00830170000100320068
:1039100013002000c814de004814dd004709de0053
:103920001200b200c808de000884700085ff07009e
:1039300001f0a1000cf0a70001f0a000cdff3700be
:103940006120e100cfff32000801be000200be008e
:10395000f7ff37006150e100fcff3a00c9ff370074
:10396000889fbe008a9fbe008c1f78000004be00a6
:103970009aff07000478a30026003a006120e100c6
:103980002500320009f8a30025003a006420e10078
:1039900021003200f507b1000508a3000200320043
:1039a00000004000818048006044b80003102000ff
:1039b000020020000000400081804800080544000b
:1039c00089854c000a0541008b8549000a05500095
:1039d0008b855800030033000a00be000204740007
:1039e000838474008301d1000281d300830f7100ae
:1039f000f0ff3a008904d1000884d3006001490037
:103a000082017800c1adde00fb07b0004dff07006a
:103a100098ff37000960a0000800be0095ff37003e
:103a200012022000d2588800f0ff2f00f1ff27007b
:103a300090ff37006022b800060220000000d0008e
:103a40008180d2000482d2008582d2000000a000d2
:103a50000202520083825a00030031000202420037
:103a600083824a000000a1000603e900f3ff3a0048
:103a700000000600889fbe008a9fbe00841f780059
:103a80006bff07004f00780011003300f0ff2f009c
:103a9000838f6c0006003b00040565000a00a70048
:103aa0000800370009f0a6001000200008003700c9
:103ab000820f5400838f5c00030039001000200047
:103ac00001003e000000200009f0a7000000ea000d
:103ad0004f05be004f04be000000e00000000600dd
:103ae000881f7800030478000300e00007003d0011
:103af00060001000e080180060011900e0811900ea
:103b000002003b0001f02d00030037000400070015
:103b100008f0a70001f0a0004f04780000000600a4
:103b2000889fbe008a9fbe00008270000402710060
:103b300004827100260032000004be000200be00b4
:103b40006011b8006b092000950220000182cf00af
:103b50000a0039000541b1000082cf00070039009a
:103b60000541b1000982cf00040039000541b100d0
:103b70000882cf00010039000541b1000542520022
:103b8000120032000a003b00828171006101640072
:103b90008100d1000080d3008984d3000884d30041
:103ba0008b05e8000442e800f7ff3a000700370001
:103bb0000804440089844c000000480081804800cb
:103bc0008b05e9000442e900f9ff3a00ddfe070039
:0c3bd0004f05be004f04be0000000600c0
:020000040000fa
:103bdc001000000000000000c84200001e29000078
:103bec009441000000000000be43000000000000f3
:103bfc00c8420000f47c000053450000492300003b
:103c0c00494b00000948000087c600001d05000054
:103c1c0072c300009f4200000e400000299d00006e
:103c2c00214500009e4a000093ca00001d4f000071
:103c3c0086cd0000b0fc000062500000590400006a
:103c4c000058000006c5000057060000c512000011
:103c5c000400000041060000005c00000c000000a5
:103c6c005d04000000110000040000004805000085
:103c7c00006b0000040000006e04000000680000ef
:103c8c000400000050050000055100000d0000006c
:103c9c00ff0000000000000081800000803b00005d
:103cac0073680000913e0000c520000030be00008b
:103cbc00000000000000000032ff00004b3d00003f
:103ccc009a990000993c0000320000003c00000072
:103cdc006400000078000000c8000000f000000044
:103cec002c01000090010000e001000058020000cf
:103cfc00b004000060090000c0120000546800000d
:103d0c00657200006d6100006c200000494c0000e1
:103d1c0043200000286300002932000030320000ec
:103d2c003020000041550000524100002d4c000095
:103d3c005353000054000000090200000000000072
:103d4c00730000006300000000070000000000008a
:103d5c00003f0000320000003c0000006400000046
:103d6c0078000000c8000000f00000002c010000ea
:103d7c0090010000e001000058020000b0040000b7
:103d8c0060090000c01200000000000001000000eb
:103d9c0004000000050000000800000009000000fd
:103dac00020000000c0000000d00000006000000e6
:103dbc000a0000000e0000000f00000000000000d0
:103dcc006148000000f00000524b000000de0000d3
:103ddc0003000000a000000040010000e001000012
:103dec00800200002003000054290000314700002d
:020000040000fa
:103dfc0092c5b300824f50001800320072e22900c5
:103e0c000002eb000402e80092417800834f50005e
:103e1c000600320063014100e1cf4100f9ff3a0096
:103e2c00e2cfb300834f50000a003a000100e000db
:103e3c0004003a006322b90050e2290060417a0084
:103e4c00040037006322b9000482e80040e2290034
:103e5c0060417a0002407800000006000002eb008e
:103e6c00f2ff37001600fa00889fbe008a9fbe0042
:103e7c008c9fbe0000067800820578000305780050
:103e8c000000eb0090b79f006011b800a2b79f0034
:103e9c00b3b79f00c2b79f00d3b79f00e0b79f0096
:103eac00f0b79f00000d78001c81fb008001eb0037
:103ebc0071015100e0815900d0052000800f5100a4
:103ecc00e08f590003033e00026001005d003700e3
:103edc009c003700ff023700fe023700fd0237005e
:103eec00fc023700fb023700fa023700f9023700f8
:103efc00f8023700f7023700f6023700f5023700f8
:103f0c00f4023700f3023700f2023700f1023700f7
:103f1c00f0023700ef023700ee023700ed023700f7
:103f2c00ec023700eb023700ea023700e9023700f7
:103f3c00e8023700e7023700e6023700e5023700f7
:103f4c00e4023700e3023700e2023700e1023700f7
:103f5c00e0023700df023700de023700dd023700f7
:103f6c00dc023700db023700da023700d9023700f7
:103f7c00d8023700d7023700d6023700d5023700f7
:103f8c00d4023700d3023700d20237009c0037002e
:103f9c00d0023700cf023700ce023700cd023700f7
:103fac00cc023700cb02370079003700c90237004a
:103fbc00c8023700c7023700c6023700c5023700f7
:103fcc00c4023700c3023700e9003700450137004f
:103fdc00c0023700bf023700be023700bd023700f7
:103fec00bc023700a10137000c023700700137000a
:103ffc00b8023700b702370080023700940237004e
:10400c00b4023700b3023700b2023700b1023700f6
:10401c00b0023700af023700ae023700ad023700f6
:10402c00ac023700ab023700f7003700a9023700ab
:10403c00a80237006a003700a6023700a502370035
:10404c008900370020488000e10f5000a4023a009c
:10405c0091a1200091407800a145980082a12000f8
:10406c0012417800b245980073a12000934178006a
:10407c00c345980016cabf00d045980051a1200036
:10408c0091407800e145980042a12000124178004f
:10409c00f245980030c0b300804d980033a2200048
:1040ac0093417800934d980020cabf00a04d980012
:1040bc0041a2200091407800b14d980020ea2900df
:1040cc0010407800c04d980030ea2900104078006c
:1040dc00d04d98000001eb00f2af9f00e0002000f3
:1040ec0080b79f007fa8970041e8290061407800c5
:1040fc000004e0000d003200010178008fb0970041
:10410c007fa89700e241780083f578008100e800f1
:10411c0081b79f000000e800f0af9f007fa89700d8
:10412c00624078000004e000f4ff3a000fb0970002
:10413c0000c0e900904598000fb09700000d780082
:10414c006702370020488000e10f500064023a00fb
:10415c00b07f80009045980011f0200091407800cd
:10416c00a145980002f0200012417800b245980059
:10417c0073f0200093417800c345980006cfbf0030
:10418c00d045980060002000000d780054023700e4
:10419c0020488000e10f500051023a0001802000bd
:1041ac0091407800e1cf400050023a008c0078003a
:1041bc00514178008241e90030002000eacf4100f3
:1041cc004a023e000240780000e8b70091407800b7
:1041dc009145980020002000000d78004002370027
:1041ec0020488000e10f50003d023a007f00400063
:1041fc00c07f88001c80fb00507888003802370094
:10420c0020488000e10f500035023a002c4090000d
:10421c000080fb0090b79f009fb09700f00f20002c
:10422c00808f5000050032009fb09700c17f88003e
:10423c001c80fb005078880029023700f00f20000a
:10424c00c07f8800b27f800092b79f00bfe19700cb
:10425c00934598002fe09700a0459800300020006f
:10426c00000d78001e02370020488000e10f50003e
:10427c001b023a000004200090b79f008000eb0066
:10428c00f1af9f00710050007fa99700800f510083
:10429c0016003e009fb09700ffa997008180410057
:1042ac0070805700d70907000fb897009fb8970088
:1042bc00c0b79f00d1b79f007fa997008200e8008c
:1042cc0081804500120020007880570060080700ac
:1042dc00ffa99700e4814100f3af9f00f00220009a
:1042ec00ffa89700808f5000eaff360000082000de
:1042fc0090b79f000001eb00f2af9f00f00220008e
:10430c00ffa99700808f510016003e009fb09700c8
:10431c007fa897008100400070805700b909070002
:10432c000fb997009fb99700c2b79f00d3b79f00f2
:10433c00ffa897001103b0008180450012002000f7
:10434c007880570042080700ffa99700e4814100dc
:10435c00f3af9f00f0022000ffa89700808f500061
:10436c00eaff360010062000000d7800dc01370053
:10437c0020488000e10f500016003a000c04780031
:10438c0058407800e14f40000c0032006f00600094
:10439c000000400011fe2f0012528000828060004d
:1043ac0081007000115288000080eb00fa060700b3
:1043bc00184478009845980003003700420ad5004d
:1043cc006f4060009045980020002000000d7800a0
:1043dc00c3013700e40f5000c1013a001c409000ab
:1043ec006f0060000000400011fe2f00135280008f
:1043fc008380600081007000115288000080eb0007
:10440c00e5060700b601370020488000e10f500098
:10441c00b3013a00b27f80000201e900800f510025
:10442c00b2013e0030002000e18f5000af013a0095
:10443c00660b0700a0578000b1578000c0b79f00e3
:10444c00d1b79f008b00e800120020007880570045
:10445c00ff070700c2578000d3578000c2b79f00e8
:10446c00d3b79f00e58045001200200078805700ec
:10447c00f7070700e0578000f1578000c0b79f0096
:10448c00d1b79f00e98045001200200078805700ca
:10449c00ef0707000258800013588000c2b79f0036
:1044ac00d3b79f00ed8045001200200078805700a4
:1044bc00e70707002058800031588000c0b79f00e4
:1044cc00d1b79f00f1804500120020007880570082
:1044dc00df070700340b070050012000000d7800a7
:1044ec007f01370020488000e10f50007c013a002a
:1044fc009c4090000141e90030002000e34f510046
:10450c007a013e00e2cf50000e00320003003e0064
:10451c00e1cf500019003a0005003700e3cf5000fe
:10452c000d003200e4cf500014003a000f003700a9
:10453c0000012000e0b79f0070004000f0b79f0022
:10454c000e00370040012000e0b79f0070004000d3
:10455c00f0b79f000900370080012000e0b79f00f2
:10456c0070004000f0b79f0004003700c00120002d
:10457c00e0b79f0070004000f0b79f006fb097004d
:10458c008c80e80012002000af0907007fb0970074
:10459c00e600460012002000ab090700bc0907002a
:1045ac00c809070010002000000d78004c013700ee
:1045bc0020488000e10f500049013a00b17f800093
:1045cc008100e900808f500048013e00a1a5200029
:1045dc009140780091459800627880007378800053
:1045ec00c2b79f00d3b79f008b0678008b80e80082
:1045fc00120020007880570095070700e87e8000a5
:10460c00f97e800002002600f35124000800be0051
:10461c0027fc07000000e0000300340000c0eb00a2
:10462c00e045980006003700020020000312240029
:10463c000800be00dafb07001ffc0700e0459800ed
:10464c00f078800001798000c0b79f00d1b79f003f
:10465c00e780460012002000788057007c07070096
:10466c00b0002000000d78001d01370020488000ac
:10467c00e10f500039003a00b17f8000e28f50000a
:10468c001a013a001c4090000080fb00f10f200042
:10469c000180b9002c4190000281fb000000410018
:1046ac00cf80de001ffc070002002000a34724007f
:1046bc00bbfb0700e0528800f1528800a1a5200046
:1046cc009140780091459800627880007378800062
:1046dc00c2b79f00d3b79f008b0678008b80e80091
:1046ec00120020007880570059070700e87e8000f0
:1046fc00f97e800002002600f35124000800be0061
:10470c00ebfb07000000e0000300340000c0eb00ee
:10471c00e045980006003700020020000312240038
:10472c000800be009efb0700e3fb0700e045980075
:10473c00f078800001798000c0b79f00d1b79f004e
:10474c00e7804600120020007880570040070700e1
:10475c00b0002000000d7800e1003700e50f50009c
:10476c00df003a00b17f800010002000e28f500083
:10477c00de003a00b17f800030002000e28f500054
:10478c00da003a00018020009140780002c6b300a4
:10479c0082cf5000d5003e000104e000d30032006f
:1047ac001c4090000080fb00c05288008180fb0000
:1047bc008180400091b79f001fb597009fb697006e
:1047cc006c407d000080fb008000eb00d8fb0700f4
:1047dc0002002000f33724002afc07000004be006e
:1047ec006cc07e000080fb008000eb00d0fb07005b
:1047fc000001be000800be000cfb070002002000f8
:10480c00a347240066fb0700e0528800f1528800a1
:10481c000a05e8009ab79f00b100370020488000d5
:10482c00e10f500044003a00b17f8000e28f50004d
:10483c00ae003a001c4090000004e00004003a0076
:10484c00fc2fef00fe2fef00036fa90009003700cb
:10485c000080fb008000eb00b5fb0700120828006d
:10486c0003b8230007fc0700e07f8800f17f880075
:10487c00036fa8002c4090000080fb008000eb0030
:10488c00abfb07000200200003122400fdfb070015
:10489c000055880011558800a1a520009140780092
:1048ac00914598006278800073788000c2b79f00b1
:1048bc00d3b79f008b0678008b80e8001200200095
:1048cc0078805700e2060700e87e8000f97e8000c1
:1048dc0002002600f35124000800be0074fb070000
:1048ec000000e0000300340000c0eb00e04598003d
:1048fc000600370002002000031224000800be004e
:10490c0027fb07006cfb0700e0459800f07880005f
:10491c0001798000c0b79f00d1b79f00e7804600a7
:10492c001200200078805700c9060700b000200054
:10493c00000d78006a003700e50f500068003a005f
:10494c00b17f800010002000e28f500067003a0019
:10495c00b17f800030002000e28f500063003a00ed
:10496c00018020009140780002c6b30082cf500035
:10497c005e003e000104e0005c0032000c00780098
:10498c005081fb00c25288008180fb008180400076
:10499c0091b79f001004e00002003a00036fa900d9
:1049ac000b0037001fb097006c4078000080fb00b4
:1049bc008000eb005efb07001208280003b8230000
:1049cc00b0fb0700e07f8800f17f8800036fa80030
:1049dc001fb097006c4078000080fb008000eb005b
:1049ec0053fb07000200200003122400a5fb070064
:1049fc000055880011558800390037002048800088
:104a0c00e10f500036003a00f60fe20037003a0092
:104a1c0030002000e98f500034003a008c00e80090
:104a2c00120020000000eb00e5080700e50046003e
:104a3c001200200040002000e10807009408070045
:104a4c00a008070010002000000d7800240037009b
:104a5c0020488000e10f500021003a00f60fe200e0
:104a6c0022003a0030002000e18f50001f003a0075
:104a7c008000eb0070805700c40807000fb9970046
:104a8c009fb99700c2b79f00d3b79f008b00e80077
:104a9c0012002000788057006d06070041002000ae
:104aac0070805700b90807000fb897009fb897009f
:104abc00c0b79f00d1b79f00e580450012002000d1
:104acc00788057006206070090002000000d7800e7
:104adc000300370020488000e10f50000200320034
:104aec009c4d780008003700100020002180200029
:104afc00914078000174a000814d78009045980099
:104b0c0020002000000d78004f06be004f05be00af
:104b1c004f04be000080fa00000006000829ef00d8
:104b2c000021ef0000322000100888009460a800db
:104b3c0005e1a8009560a8009c20a80000000600d4
:104b4c000829ef002202ab00030032003011800074
:104b5c002202ab00fdff3a000021ef000014200000
:104b6c00100888009460a80005e1a8009560a800d2
:104b7c009c20a8000000060031788000c408de00ec
:104b8c00e18060000000eb0006afab0004003200d7
:104b9c0000042000060fb6000000ea004f00de0003
:104bac000080700006003a0022cabf0004003200e8
:104bbc00e94f400002003e0000e8b700010037005a
:104bcc0000e8ef000229ef000c2aef00c20d0700ed
:104bdc000421ef009460a9002005800000c0a00013
:104bec0000d0a10000e0a00020058800f0fc2f0000
:104bfc000421b6009c20a800c8ff0700040fa800e1
:104c0c000000060005e1a9000021ef009050800093
:104c1c006400500090508800e10f50000b003200ef
:104c2c0005003900e20f50000d003200e30f500078
:104c3c0015003a000f003700000a20001008880009
:104c4c00400020004048880013003700001420006a
:104c5c001008880040002000404888000e003700f3
:104c6c00001e2000100888004000200040488800ea
:104c7c0009003700002820001008880040002000a0
:104c8c0040488800040037000032200010088800db
:104c9c00300020004048880005e1a8000000060014
:104cac003600f800809fbe00829fbe00849fbe002d
:104cbc00869fbe003400f80000002000a001880090
:104ccc0096ff07008c20a9003400f9004f03be00aa
:104cdc004f02be004f01be004f00be003600f9006f
:104cec0000400600809fbe00829fbe00841f78009b
:104cfc003400f80000002000a001880070508000f3
:104d0c00e401400064508000b1902000810040001c
:104d1c00080037005181fb00221188000000e800d8
:104d2c00800f520003003e00705088009580a9004f
:104d3c0003003700808f5100f6ff3e007050880052
:104d4c008580a9003400f9004f0278004f01be00a5
:104d5c004f00be000040060011488000108020006b
:104d6c00410c07000000e0002a003a0011488000c6
:104d7c00e3805000a3902000d290200020802000df
:104d8c0038fc0700514880000100e000210032008f
:104d9c00638040006050880012802000124178002f
:104dac00c0902000024878008100e800c0902000ec
:104dbc002d0c070061508000a290200000f17800bb
:104dcc004800de000201e800807079000cc9bf00c9
:104ddc000080fb00201188000dc9bf000080fb0083
:104dec00201188000ec9bf000080fb002011880034
:104dfc000fc9bf000080fb0020118800e48f500019
:104e0c000400360040002000705088008580a90006
:104e1c009580a800000006003600f800809fbe00b8
:104e2c00829fbe00849fbe00869fbe003400f800a7
:104e3c0000002000a00188000021ef008460a90080
:104e4c0040488000e10f50000f003200080039008c
:104e5c00e20f500003003200e30f50005e003a00f6
:104e6c004c0037002202ab0046003a005b003700d2
:104e7c002202ab0059003200301180002202ab003c
:104e8c00fdff3a00550037003011800000417800da
:104e9c0001e8b70031118000014078000142780030
:104eac002380200084497800311180000142780071
:104ebc003380200084497800311180000142780051
:104ecc00438020008449780041002000114888006c
:104edc00018020009140780082cf500007003a00fa
:104eec0011002000214888008000eb00c0fb070067
:104efc000080fb00805088000b003700e64f41001b
:104f0c0007003a0011002000b9fb07000080fb00ed
:104f1c008050880050002000204888000400370092
:104f2c000429ef00fdfe07000409e2002b0032000b
:104f3c0080508000e10f2000810f50000b003200e8
:104f4c00e40f500003003600905088002dff07003e
:104f5c002200370005e1a9009560a9009c20a9005a
:104f6c007dff0700f6fe07001c0037002000200024
:104f7c0040488800003220001008880005e1a80095
:104f8c0016003700301180002202ab00fdff3a0002
:104f9c001200370011488000321180001080200070
:104fac0002f078008100e8003211800002f07800f5
:104fbc008100e8003211800002f078008100e800e6
:104fcc003211800002f078008100e800114888005e
:104fdc000cff070001003700d0fe07008560a90018
:104fec003400f9004f03be004f02be004f01be005b
:104ffc004f00be003600f900004006003600f800f5
:10500c00809fbe00829fbe00849fbe00869fbe0014
:10501c003400f80000002000a001880005e1a90080
:10502c0040488000e20f50002c00320003003e008c
:10503c000000e0000b0032003f003700e30f50008f
:10504c0005003200e40f50003b003a002202ab0096
:10505c0028003a00300037002202ab000e003a0064
:10506c00160037002202ab00080032002202ab000f
:10507c0003003200301180002202ab00fdff3a0029
:10508c000021ef0005e1a8002c00370010002000e3
:10509c00404888002900370010488000018020001b
:1050ac008100400032118000826878000000e80026
:1050bc002202ab00fbff3a0010488800f00f2000e2
:1050cc00100ae30003003a009560a9009c20a90097
:1050dc0021ff07009afe07001800370098fe070012
:1050ec00046fa80004cfa80010c0b30006e9b700f5
:1050fc001200370010488000018020008100400021
:10510c0032118000826878000000e8002202ab00b7
:10511c00fbff3a0010488800805080000209e30031
:10512c0003003a009560a9009c20a9000aff070023
:10513c0083fe07000100370078fe07008460a90099
:10514c003400f9004f03be004f02be004f01be00f9
:10515c004f00be003600f90000400600046fab00a3
:10516c0045003200046fa90004cfab0018003a00d0
:10517c000180200091407800c29020000149780005
:10518c00507880000de9b700b1062000810f500067
:10519c0003003a00400020006050880019003700de
:1051ac0011042000810f500016003a00b07f8000df
:1051bc00c800de0001417800e390200082497800ad
:1051cc000fe9b70060002000605088000d00370028
:1051dc000380200093417800c090200003487800a1
:1051ec0002c8bf000074a0000de9b7006190200058
:1051fc0091407800e2902000014978005000200096
:10520c0060508800615080008180e900c0902000cf
:10521c00150b070061508000a290200000f178006f
:10522c004800de000201e800807079000e2aef00d1
:10523c000cc9bf000080fb00201188000dc9bf0005
:10524c000080fb00201188000ec9bf000080fb000d
:10525c00201188000fc9bf000080fb0020118800be
:10526c00e48f50000400360040002000705088008d
:10527c008580a9009580a8000000060080f9200018
:10528c0021f5200004042000000242006011b80047
:10529c0002a8be0082a8be00840f5000fcff3a009a
:1052ac00962fef00502fef006000b8002079880097
:1052bc003179880040798800517988000000060017
:1052cc0010798000e10f50001d003200e30f5000f8
:1052dc0035003a00817a80008100e800ef806000a0
:1052ec00817a8800c208dd0060f520008100400052
:1052fc001102be00a2578000b35780008288be0006
:10530c00907a8000a17a80000200400083804800df
:10531c000400500085805800907a8800a17a88009b
:10532c004c09dd004400de0000007100c408de0002
:10533c00fff8070040798800517988001a0037007f
:10534c00b17c80008100e800ef806000b17c8800b7
:10535c00c208dd00c0f92000810040001102be002f
:10536c00a2578000b35780008288be00c07c8000aa
:10537c00d17c800002004000838048000400500073
:10538c0085805800c07c8800d17c88004c09dd00e9
:10539c004400de0000007100c408de00e4f80700e1
:1053ac00207988003179880000000600889fbe00b3
:1053bc008a9fbe008c9fbe00105280004500de000c
:1053cc0063006000e30507000004be001c0fe20050
:1053dc00230032008bf220000005eb006066b80061
:1053ec000a007800a80507000001be00e10f550077
:1053fc000900320005003900e20f550009003200a7
:10540c00e30f55000d003a000900370030518000c1
:10541c00415180000a0037005051800061518000da
:10542c000700370070518000815180000400370064
:10543c0090518000a1518000010037000c00be008b
:10544c0057f807000801be000ef9070080adbe003a
:10545c000a05e800e07880008a0f5000e0ff3e006b
:10546c004f06be004f05be004f04be0000000600f4
:10547c000400fa0001012000648057007405070045
:10548c006fb89700ffb89700e0798800f179880031
:10549c0041012000648057006d0507006fb897002c
:1054ac00ffb89700007a8800117a880081012000eb
:1054bc0064805700660507006fb89700ffb8970027
:1054cc00207a8800317a8800c1012000648057005e
:1054dc005f0507006fb89700ffb89700407a880007
:1054ec00517a88000080fa0000000600400020007d
:1054fc00e0788800222fef0060ff0700abff070069
:10550c00dbff070000000600889fbe008a9fbe00dc
:10551c00800578000204be00014578000a80fb007b
:10552c004200dd00008045001000be000a04e000cf
:10553c000a0032000801be00d2f807000a81fb0005
:10554c000201e9004211dd00028145001201be009a
:10555c00b6f707000a45e900f6ff3a004f05be0012
:10556c004f04be0000000600889fbe008a9fbe004c
:10557c0011798000e18f500003003200e38f50005e
:10558c008d003a00270037000000e00003003200d5
:10559c00e10f500088003a0011003700c05780001e
:1055ac00d15780005ff807002279800033798000a2
:1055bc009df707006279800073798000b1f80700cd
:1055cc00e2798000f379800097f70700e803fc008c
:1055dc0060788800717888000000fc007600370045
:1055ec00e0578000f15780004ef8070022798000c8
:1055fc00337980008cf707008279800093798000e2
:10560c00a0f80700027a8000137a800086f7070062
:10561c00e803fc0080788800917888000000fc008a
:10562c0065003700e20f500003003200e30f50001a
:10563c0061003a000b003700e803fc0000588000c2
:10564c001158800037f807004279800053798000a8
:10565c0075f70700a0788800b17888000000fc007e
:10566c0055003700f2ff2f00f3f727000000200051
:10567c000100240083f807000005be00e803fc00cd
:10568c00205880003158800026f8070042798000ad
:10569c005379800064f70700c0788800d1788800bf
:1056ac000000fc00a0788000b178800002f02f0090
:1056bc00f3772400fef707000000e0000c00340034
:1056cc00c0788000d1788000a2788000b378800008
:1056dc00b3f7070002002000832c240069f80700b0
:1056ec00607a8800717a880000cfa9000100370029
:1056fc0000cfa800687a8000797a80000200200030
:10570c00832c24000800be00e7f707000000e0002f
:10571c000f003d00e2912200431924000800be0056
:10572c00e1f707000000e00002003d0000efa800d8
:10573c001d00370051c0b3000801be00c0e02900b5
:10574c0071ff07000005be0000efa900160037002e
:10575c0002002000e33b24000800be00d4f7070041
:10576c000000e0000200340000efa8000e0037003b
:10577c009280240073682c000800be0041f80700da
:10578c009234220093b4240028f7070071f8070024
:10579c000001be0040cf27003155240022f707003e
:1057ac000005be0000efa900e803fc00fa788800b1
:1057bc000b7988000000fc004f05be004f04be00b2
:1057cc0000000600d306070000000600881f7800c2
:1057dc00f0568000e10f50006e003a001079800006
:1057ec00e10f50000d00320005003900e20f5000af
:1057fc002d003200e30f500065003a0031003700f5
:10580c00c406070010578000e50f500060003600fa
:10581c0010002000107988005d003700bd060700dd
:10582c0010578000e50f500008003200e60f5000c2
:10583c000b003200e40f50000e003a00a0fe0700ef
:10584c0010002000e05688000b0037000000eb0031
:10585c0045ff070020002000e056880006003700b6
:10586c001000200040ff070030002000e0568800a8
:10587c0001003700dc2aef0010578000e50f5000c4
:10588c004300360042aaa90042caa900420aa80055
:10589c0028002000187988000000eb00be010700ea
:1058ac00085788003a0037009a0607001057800006
:1058bc00e70f5000360036003000200010798800c9
:1058cc00330037009306070010578000e60f500096
:1058dc001400320005003e00e40f500008003200b6
:1058ec00e50f50001e003a0009003700e70f50008a
:1058fc0011003200e80f500019003a001300370075
:10590c006ffe070010002000e056880015003700dd
:10591c000000eb0014ff070020002000e056880078
:10592c0010003700100020000fff0700300020008f
:10593c00e05688000b003700200020000aff07000b
:10594c0040002000e05688000600370030002000a0
:10595c0005ff070050002000e056880001003700ca
:10596c00dc2aef0010578000e70f500008003600cb
:10597c0042aaa80042caa800420aa900222fef009e
:10598c000000eb0084010700200020000057880075
:10599c00de2aef004f04780000000600881f780014
:1059ac00185280007e00640001eb29006100780031
:1059bc008000eb005ef707000001be000000200035
:1059cc0001f82300f6f607000878a30003003a005c
:1059dc000200200003042400aaf707000808a30013
:1059ec0004003a000200200003042400a5f707007d
:1059fc000300370002002000030a2400a1f707006f
:105a0c006400fc0020538800315388000000fc0027
:105a1c004f047800000006002000fa00889fbe00aa
:105a2c008a9fbe008c9fbe006000b8009c090700d6
:105a3c006055b800ea528800fb5288006a5488000e
:105a4c007b5488008a5488009b548800aa54880090
:105a5c00bb5488000a5488001b5488002a548800c0
:105a6c003b5488004a5488005b5488008000eb004b
:105a7c0040fd2f000f004000c40407002fa8970022
:105a8c00bfa89700c0548800d15488004100200062
:105a9c0040fd2f000f004000bc0407002fa9970009
:105aac00bfa99700e2548800f3548800bbff07009d
:105abc0022538000335380000000200001f82300a3
:105acc00b7f607004053880051538800c854800033
:105adc00d954800040538000515380000a01be000d
:105aec0068f707000001be000800be004ff6070073
:105afc006053880071538800c0548000d1548000da
:105b0c00c4548000d554800084bf9f0095bf9f0073
:105b1c004c5380005d53800022538000335380002f
:105b2c00e2b79f00f3b79f00e4548000f554800067
:105b3c00c4b79f00d5b79f00225380003353800019
:105b4c00a2b79f00b3b79f00445380005553800009
:105b5c0084b79f0095b79f000200200003002c0023
:105b6c0048f707000004be000c01be000fb89700f8
:105b7c009fb8970043f707006fb19700ffb19700ec
:105b8c0040f707000001be000800be0027f6070022
:105b9c000004be002fb19700bfb197004fb0970023
:105bac00dfb0970037f707000001be000800be0009
:105bbc001ef607000004be000a01be000fb09700dd
:105bcc009fb097002ff707000001be000800be0031
:105bdc0016f607008053880091538800cc5480003f
:105bec00dd548000c0548000d154800042538000aa
:105bfc00535380002853800039538000e4548000b4
:105c0c00f554800084bf9f0095bf9f0024538000f3
:105c1c0035538000e4b79f00f5b79f00e454800033
:105c2c00f5548000c4b79f00d5b79f004453800043
:105c3c0055538000a4b79f00b5b79f002453800034
:105c4c003553800084b79f0095b79f002453800084
:105c5c0035538000e4af9f00f5af9f0044538000a4
:105c6c0055538000c4af9f00d5af9f0005f70700c8
:105c7c000801be0003f707000001be000c00be00c7
:105c8c00e9f507000004be006fb19700ffb1970063
:105c9c000fb897009fb89700faf607000001be00f6
:105cac000800be00e0f507000004be002fb197000d
:105cbc00bfb197004fb09700dfb09700f1f6070027
:105ccc000fb197009fb19700eef607006fa99700f0
:105cdc00ffa99700ebf607000001be000800be000c
:105cec00d2f507000004be000a01be004fa89700c1
:105cfc00dfa89700e3f607000001be000800be0015
:105d0c00caf50700a0538800b153880040538000a7
:105d1c00515380002253800033538000d9f6070082
:105d2c000001be000000200001002400bef50700a9
:105d3c00c0538800d15388004053800051538000d9
:105d4c002253800033538000cef60700020020005f
:105d5c0003f82300b4f50700e0538800f1538800e2
:105d6c004f06be004f05be004f04be000080fa0077
:105d7c00000006001800fa00889fbe008a9fbe0033
:105d8c008c9fbe00e0528000f152800002538000d4
:105d9c0013538000a4f507006054880071548800e8
:105dac00c0538000d15380002254800033548000b3
:105dbc00ec538000fd5380004a5480005b548000fb
:105dcc00645380007553800084bf9f0095bf9f0073
:105ddc006454800075548000e4b79f00f5b79f00b1
:105dec008453800095538000c4b79f00d5b79f00a3
:105dfc008454800095548000a4b79f00b5b79f00d1
:105e0c00a4538000b553800084b79f0095b79f00c2
:105e1c00a4548000b5548000e4af9f00f5af9f0000
:105e2c0098f607000004be000a01be000c00be007c
:105e3c0094f607000001be000800be007bf50700c9
:105e4c000004be006fb19700ffb197000fb8970028
:105e5c009fb897008bf607000001be000800be003b
:105e6c0072f507000004be002fb19700bfb1970078
:105e7c004fb09700dfb0970082f607000001be001c
:105e8c000800be0069f507000004be006fa997006a
:105e9c00ffa997000fb097009fb0970079f6070005
:105eac000001be000800be0060f507006400fc00a5
:105ebc0000548800115488000000fc00205480001d
:105ecc0031548000405488005154880004548000a0
:105edc001554800024548800355488008054800068
:105eec0091548000a0548800b15488006454800000
:105efc007554800084548800955488004f06be0069
:105f0c004f05be004f04be000080fa0000000600e2
:105f1c00889fbe00f07880000179800000538800d3
:105f2c001153880000578000e20f500003003a0024
:105f3c00220fe20001003a008eff0700e803fc008c
:105f4c0000548000115480000200200003f0230054
:105f5c004cf607000004be000000fc00020020000c
:105f6c0003f82300d2f507000000e000060034001f
:105f7c006400fc00fc2fef0001f82300f17f880087
:105f8c000000fc0002003700e87f8800f97f8800e1
:105f9c004f04be0000000600881f78000004780043
:105fac008a040700105280004500de006340600048
:105fbc0006050700420ad5006f00600011050700b6
:105fcc00105280004700de00614060002105070090
:105fdc001052800061006000280507000800e000f6
:105fec0003003a0070040700a30407000300370005
:105ffc00e10f540001003a00740407004f047800cc
:10600c0000000600060fa800cb0607000000e00009
:10601c000d003a0041a12000800140000302e8007d
:10602c0062fe2000e2487a008381e800e2c1790038
:10603c00934098000000e8008180e800e30f5000d6
:10604c00f5ff3a00060fa900000006000400fa0054
:10605c000080eb00e0bf9f00e101200020a22000a7
:10606c0081070700f0bf9f006ff89700404ae300dc
:10607c0005003a007ff89700414ae30002003a001d
:10608c000000eb00e0bf9f006fb897000080fa00a3
:10609c0000000600062fa800206aef0023cabf00ec
:1060ac00e34f500005003a00062fa90041a2200042
:1060bc009140780000a22000014878000000060002
:1060cc000200fa00881f7800068fa80006afa8000f
:1060dc0006cfa8009a0507000000e00043003a0034
:1060ec0000cfb300eb0507000000e0003f003a00d2
:1060fc00c0ff9f004ff89700ff4f50000b003e0071
:10610c004ffc9700c60507000884fb0021a2200065
:10611c0080707c004ff897000040e800c0ff9f00a3
:10612c004ff89700ff4f5000f5ff3600c7ff0700f0
:10613c000000e00002003a0006afa900068fa9009b
:10614c000040eb00c0ff9f004ff89700ff4f50003e
:10615c000b003e004ffc9700b10507000884fb00c4
:10616c0021a2200080707c004ff897000040e800ce
:10617c00c0ff9f004ff89700ff4f5000f5ff36000f
:10618c00b2ff07000000e00003003a0006cfa900b0
:10619c00068fa9001500370006afab0013003a00bc
:1061ac006705070000cfb300ba0507000040eb00fd
:1061bc00c0ff9f004ff89700ff4f50000b003e00b0
:1061cc004ffc9700960507000884fb0021a22000d5
:1061dc0080707c004ff897000040e800c0ff9f00e3
:1061ec004ff89700ff4f5000f5ff3600540507009d
:1061fc004f0478000080fa0000000600304d2c009f
:10620c004007b60027003200003a80004400dd0051
:10621c000010b200f1ef2f00327880008280600015
:10622c008100700031788800003a80004300de0065
:10623c006800600071ff2f0012788000828060007f
:10624c0081007000117888004007d500013a800069
:10625c00e18060000100a200008060004900dd00c8
:10626c00f1df2f00327880008280600081007000a6
:10627c0031788800013a8000cf08de00003a8000b7
:10628c004e00de0000807000610060004a00dd00fe
:10629c00f1bf2f0032788000828060008100700096
:1062ac00317888004027ef00000006000e00fa004d
:1062bc00881f7800010478006022b800b4bf9f00ea
:1062cc00c5bf9f000200e00013003a008000eb0005
:1062dc0081bf9f000fb99700e20f510020003e00d4
:1062ec00ea8157000fba97008400e8000fba9700b4
:1062fc00040140001241780082f178008fb89700b9
:10630c008100e80081bf9f000fb99700e20f510098
:10631c00f4ff3600120037000002eb0084bf9f0030
:10632c008fb89700e28f50000d003e00ea815700b5
:10633c000fb997008200e8000fba970062011200b3
:10634c006041790082f178008fb897008100e800f5
:10635c0081bf9f000fb99700e20f5100f4ff360088
:10636c003fb89700cfb8970090bf9f00a1bf9f0088
:10637c001fb89700afb89700eaf40700020020009e
:10638c0003b823003ff50700d0bf9f00e1bf9f007b
:10639c005fb89700efb89700008cbe004f047800f0
:1063ac000080fa00000006000600fa000200e0007f
:1063bc0011003a00d2bf9f00dfb99700e38f510064
:1063cc001e003e00648257005fb99700dfba970049
:1063dc008501400093417800037279005fb9970002
:1063ec000201e800d2bf9f00dfb99700e38f510094
:1063fc00f5ff3600110037008002eb00d5bf9f007f
:10640c005fb99700e30f51000c003e006482570007
:10641c005fb99700dfba9700e3811200e0c1790001
:10642c00037279005fb997000201e800d2bf9f00a8
:10643c00dfb99700e38f5100f5ff36006fb9970075
:10644c00ffb997008288be000080fa0000000600a9
:10645c000600fa001002be00e4bf9f00f5bf9f00cb
:10646c000200e00012003a008002eb00d5bf9f0052
:10647c005fb89700e30f50001e003e005fb9970015
:10648c0002804000e48157005fba9700048141000c
:10649c0012487800dfba97008502e800d5bf9f004c
:1064ac005fb89700e30f5000f4ff3600110037007f
:1064bc000001eb00d2bf9f00dfb99700e38f5100c2
:1064cc000c003e005fba970063001200e482570094
:1064dc00dfb9970003814200927078005fba970091
:1064ec000402e800d4bf9f00dfba9700e38f52008c
:1064fc00f4ff36000080fa0000000600881f7800c8
:10650c00185280007e006400a1e62900610078002a
:10651c008000eb0086f407000001be0000002000a4
:10652c0001f823001ef407000878a30003003a00ca
:10653c000200200003042400d2f407000808a30082
:10654c0004003a000200200003042400cdf40700ec
:10655c000300370002002000030a2400c9f40700de
:10656c006400fc0040558800515588000000fc0078
:10657c004f047800000006001000fa00889fbe004f
:10658c008a9fbe008c9fbe00186bef000040eb0092
:10659c00410707006055b8000a5588001b55880054
:1065ac008a5688009b568800aa568800bb568800dd
:1065bc00ca568800db5688002a5688003b5688004d
:1065cc004a5688005b5688006a5688007b568800bd
:1065dc00caff070042558000535580000000200080
:1065ec0001f82300eef30700605588007155880010
:1065fc0060558000715580000a01be00a1f40700af
:10660c00520c220003e3230088f307008055880016
:10661c009155880060558000715580004855800068
:10662c00595580004c5580005d55800062558000a6
:10663c007355800082bf9f0093bf9f00520c2200b5
:10664c0003e323008ff407000801be008df407005c
:10665c00520c220003eb230073f307000004be006e
:10666c002204260053de23000c00be0085f4070034
:10667c000001be000800be006cf307000004be0061
:10668c000a01be000fb897009fb897007df4070071
:10669c000001be000800be0064f30700a05588008e
:1066ac00b1558800605580007155800048558000b8
:1066bc00595580004c5580005d5580006255800016
:1066cc007355800082bf9f0093bf9f00425580008e
:1066dc0053558000e2b79f00f3b79f0042558000ee
:1066ec0053558000c2b79f00d3b79f0062558000fe
:1066fc0073558000a2b79f00b3b79f00520c2200c5
:10670c0003e323005ff407000801be005df40700fb
:10671c000001be00500c220001e3230042f30700ed
:10672c000004be002204260053de23000c00be0031
:10673c0054f407000001be000800be003af3070045
:10674c000004be002204260053de23000fb897007d
:10675c009fb897004bf407006fb19700ffb19700fb
:10676c0048f407004fb19700dfb1970045f40700dc
:10677c000001be000800be002cf307000004be00a0
:10678c000a01be002fb09700bfb097003df4070080
:10679c000001be000800be0024f30700c0558800ad
:1067ac00d15588006055800071558000425580009d
:1067bc005355800033f407000001be000000200098
:1067cc000100240018f30700e0558800f1558800fb
:1067dc0060558000715580004255800053558000f3
:1067ec0028f407000200200003f823000ef3070032
:1067fc0000568800115688004f06be004f05be009b
:10680c004f04be000080fa00000006001800fa00d9
:10681c00889fbe008a9fbe008c9fbe0000558000e2
:10682c00115580002255800033558000fef2070080
:10683c008056880091568800e0558000f155800004
:10684c0042568000535680000c5680001d56800026
:10685c006a5680007b5680008455800095558000d8
:10686c0084bf9f0095bf9f00845680009556800082
:10687c00e4b79f00f5b79f00a4558000b555800084
:10688c00c4b79f00d5b79f00a4568000b5568000b2
:10689c00a4b79f00b5b79f00c4558000d5558000a4
:1068ac0084b79f0095b79f00c4568000d5568000d2
:1068bc00e4af9f00f5af9f00f2f307000004be00a9
:1068cc000a01be000c00be00eef307000001be0082
:1068dc000800be00d5f207000004be006fb197009f
:1068ec00ffb197000fb897009fb89700e5f307002a
:1068fc000001be000800be00ccf207000004be0080
:10690c002fb19700bfb197004fb09700dfb0970041
:10691c00dcf307000001be000800be00c3f2070054
:10692c000004be006fa99700ffa997000fb0970055
:10693c009fb09700d3f307000001be000800be0013
:10694c00baf207006400fc0020568800315688001b
:10695c000000fc00405680005156800060568800b4
:10696c0071568800245680003556800044568800a5
:10697c0055568800a0568000b1568000c05688003d
:10698c00d15688008456800095568000a456880005
:10699c00b55688004f06be004f05be004f04be0022
:1069ac000080fa0000000600e07e8000f17e80008e
:1069bc002055880031558800e0568000e20f5000c9
:1069cc0002003a000000eb0090ff07002056800008
:1069dc003156800022f32f00b3d42300a9f3070013
:1069ec0035f30700f10f2000810f50000200360034
:1069fc0018ebef000100370018ebb700dc2aef00b2
:106a0c0000000600889fbe008a1f780000057800f1
:106a1c000104780000e02f00f1072000000444007e
:106a2c00e08448000800be0047060700000d78000f
:106a3c0062004400e0804c004306070010059800fb
:106a4c000a0078004f0578004f04be0000000600d5
:106a5c000400fa00881f780000047800b058800009
:106a6c008080400066805700e6ff07005fb8970003
:106a7c00efb89700008cbe00080078004f04780037
:106a8c000080fa00000006000400fa00881f78005d
:106a9c0000047800f2ff2f00f3f72700000020001d
:106aac000100240077f30700020320000378800024
:106abc0003016100f00f510023003200e10f54007c
:106acc000d00320005003900e20f540011003200b5
:106adc00e30f54001c003a0015003700b158800039
:106aec000102b00066805700c6ff07005fb8970030
:106afc00efb8970014003700b15880004102b00085
:106b0c0066805700bfff07005fb89700efb897008b
:106b1c000d003700b15880008102b000668057002c
:106b2c00b8ff07005fb89700efb897000600370072
:106b3c00b1588000c102b00066805700b1ff070059
:106b4c005fb89700efb897004f0478000080fa0008
:106b5c00000006000400fa00000178000103200088
:106b6c0003788000038060006022b800810f500021
:106b7c0023003200e10f51000d00320006003900f5
:106b8c00e20f5100110032006022b800e30f5100f7
:106b9c001b003a0014003700b15880006480570085
:106bac0098ff07006fba9700ffba970014003700e0
:106bbc00b1588000e48040006480570091ff0700ca
:106bcc006fba9700ffba97000d003700b1588000dc
:106bdc00e8804000648057008aff07006fba970076
:106bec00ffba970006003700b1588000ec804000d7
:106bfc006480570083ff07006fba9700ffba9700b5
:106c0c000400be000080fa00000006000400fa0038
:106c1c00881f78000004780001007800e680570097
:106c2c00e1fd0700dfb89700080078006205070057
:106c3c000880e800efb897005f0507004f04780064
:106c4c000080fa0000000600889fbe008a1f7800b2
:106c5c00000478000105780082047800000420000c
:106c6c0008004000090178008a007800e7ff07005f
:106c7c000008200008004000090178008a00780014
:106c8c00e2ff07004f0578004f04be00000006002d
:106c9c00881f7800e1032000000420007f04070017
:106cac000004780088007800e00720004205070007
:106cbc0088007800e00b20003f0507004f047800a7
:106ccc00000006000800fa00889fbe000000eb00e0
:106cdc00c0bf9f00d0bf9f0016abef00e0eb2f00b2
:106cec00f1072000a0bf9f00b1bf9f002fb89700f5
:106cfc00bfb8970094050700c0bf9f00e1032000b8
:106d0c000008200065040700d0bf9f00cfb8970093
:106d1c005fb89700808f500004003a0000afa900c4
:106d2c0000082000b05888000100370000afa80010
:106d3c00e0e72f00f1072000a0bf9f00b1bf9f002c
:106d4c002fb89700bfb897007f0507000004be005e
:106d5c00e103200000042000500407008000eb0039
:106d6c00800f5400818f5c0004003a00008fa90052
:106d7c0000042000b058880001003700008fa800e4
:106d8c004f04be000080fa00000006000400fa0068
:106d9c00881f7800000478000110b000668057004e
:106dac0018ff07005fb89700efb89700008cbe0083
:106dbc00080078004f0478000080fa0000000600fc
:106dcc00889fbe008a1f78000004780001057800b7
:106ddc0082047800001020000800400009017800af
:106dec008a00780089ff070000122000080040008c
:106dfc00090178008a00780084ff07004f057800ad
:106e0c004f04be0000000600881f7800e10120003e
:106e1c00001020002104070000047800880078008e
:106e2c00e0112000e404070088007800e013200043
:106e3c00e10407004f04780000000600889fbe00a4
:106e4c00ad010700edfc070040012000b07f880079
:106e5c00f00f2000d07f8800c07f880009802000c0
:106e6c0000047800b07f8000e20f50001000320068
:106e7c0005003e000000e0001d003200e10f500054
:106e8c0018003a0007003700e40f500018003200d9
:106e9c001400390074005000e10f500011003e0046
:106eac001300370049fa070024f1070010003700df
:106ebc0046fa070021f10700bbfe0700117880009d
:106ecc000180640001003a0011fc070018cbbf00e0
:106edc00f1040700e07f8000f17f80007004070060
:106eec0003003700082fef00074fa8000000fe003a
:106efc00803efc00c07f8000880f50006400320090
:106f0c0004cfa900046fa80030c0b30006e9b70095
:106f1c00b07f8000e10f50001800320005003900ee
:106f2c00e20f50002c003200e40f50004c003a00ed
:106f3c003b003700c07f8000e10f5000060032009c
:106f4c0003003900e30f50000a003a000500370037
:106f5c00f62fef004300370010002000b07f8800b0
:106f6c004000370020002000407888000000fe0020
:106f7c003c00370004cfa8003a003700c07f8000e7
:106f8c00e10f50000800320005003900e20f5000fc
:106f9c0008003200e30f50000d003a0008003700e3
:106fac00f62fef002f00370010002000b07f880074
:106fbc002c00370020002000b07f8800290037000b
:106fcc0020002000407888000000fe0025003700db
:106fdc0004cfa80023003700c07f8000e20f5000d0
:106fec0006003200e30f500007003200e10f5000a2
:106ffc0009003a00b07f88001a00370020002000fa
:10700c00b07f8800170037002000200040788800ef
:10701c000000fe001300370004cfa8001100370059
:10702c00c07f8000e30f500007003200e50f5000d6
:10703c0009003a0048010700020fab0009003200ba
:10704c00f62fef0007003700200020004078880062
:10705c000000fe000300370004cfa8000100370039
:10706c0004cfa80000022000f80fe30007003a004c
:10707c0004cfa90050002000407888000000fe00da
:10708c000000eb004f04be0000000600c87f880023
:10709c000000fc00b07f800074005000e10f500035
:1070ac0002003600350107002cf80700d07f800065
:1070bc00f60fe3003a003200b07f8000e20f500080
:1070cc003200320005003e000000e0001e003200dd
:1070dc00e10f500032003a0023003700f40f50004b
:1070ec0005003200f50f50000b003200e40f500089
:1070fc002b003a0028003700803efc008d0307006f
:10710c0024030700f60ff800fa0ff90050012000d5
:10711c00b07f880022003700fc00070096f60700bd
:10712c00f60ff800fa0ff900020fab000200320064
:10713c00f62fef000200370040002000b07f8800df
:10714c000000fc00160037001000200092fb070026
:10715c0071f0070008fd07002ffa0700dc03070099
:10716c00fa2fef000e0037000000eb008afb07003f
:10717c0040f0070000fd070027fa0700d4030700c2
:10718c0010002000d07f8800050037002000200070
:10719c00d07f88000200370040002000d07f88009c
:1071ac000060fe002fff37008400a9008200a800b9
:1071bc00200580000000a1000010a0000020a1000c
:1071cc00200588009400a800000006009400a90087
:1071dc0000000600801f78003400f800000020003a
:1071ec00a00188001000200000578800f05688008d
:1071fc008400a9003400f9004f007800004006001c
:10720c00cd82a900d001200001002000400407001d
:10721c00cd82a80000000600670060004400dd007d
:10722c00f2f82f0043588000030161000201700046
:10723c0042588800086ba900cde2a9004022ab009f
:10724c00feff3a0008cbbf000080fb004012880014
:10725c004002ab00feff3200401280008180fb0038
:10726c00411288004002ab00feff32004012800049
:10727c00cde2a80000000600cde2a9004022ab0040
:10728c00feff3a0080c7b30008ebb7008007200070
:10729c00401288004002ab00feff3200401280001a
:1072ac00f00f2000401288004002ab00feff3200bd
:1072bc0040128000f00f2000401288004002ab000a
:1072cc00feff320040128000f00f200040128800b8
:1072dc004002ab00feff320040128000cde2a8005d
:1072ec0000000600cde2a9004022ab00feff3a00f0
:1072fc00a0c7b30008ebb700a0072000401288001d
:10730c004002ab00feff320040128000cde2a8002c
:10731c0000000600cde2a9006000b800f20f2000ca
:10732c00421288004002ab00feff32004212800085
:10733c000281fb0003f02f0081816100830071004a
:10734c00f20f2000421288004002ab00feff320018
:10735c0043128000c819dd00f20f2000000261000a
:10736c0004807100421288004002ab00feff320024
:10737c00421280000281fb0003f02f00808161002b
:10738c0003007100cde2a80067016100e70f510016
:10739c0004003a0013578000e78f510001003a00b7
:1073ac0082002000c211dd0044ae200083014200a7
:1073bc004a0add004600de0000007200c608de004e
:1073cc008089be001257880000000600889fbe000e
:1073dc00590020000904dd008840780040c0b3004b
:1073ec008dff070088407800094078008aff07006d
:1073fc008840780060c0b30087ff07004f04be00d0
:10740c000000060000004000a1ec2900610078009b
:10741c00c200dd000103b200f2fc2f0053588000c3
:10742c000301610082807000630060000000400076
:10743c0092ff2f00828060008100700051588800fc
:10744c00a1b020009140780010c0b30072ff07007b
:10745c0000000600e14f500002003a000a0ba800a1
:10746c00010037000a0ba900a1b020009140780060
:10747c0010c0b30068ff0700000006000000e00029
:10748c0003003200e10f500007003a000300370000
:10749c0090c9b3000cebb7000500370090cbb300dc
:1074ac000cebb7000200370090c1b3000cebb70037
:1074bc00c1b020009140780020c0b30056ff0700f7
:1074cc0000000600e02aef004dff0700a1c3b30047
:1074dc00a0b020000148780010c0b3004eff070098
:1074ec0091c9b300c0b020000148780020c0b3009f
:1074fc0049ff070000000600002fef00022fef00ed
:10750c00062fef0044aaef000000060003cfa900ed
:10751c00ebfa0700bbfa0700defa0700e9fd0700eb
:10752c00068fab000b003a008f030700e5ff070046
:10753c0051a220009140780020a42000014878003e
:10754c001000200094fa0700e8f70700fa02070081
:10755c00020fa80000000600060fe2000600320031
:10756c00f08f2f00062fb60040f58400060fb600f2
:10757c000080ea002052880000000600889fbe00b0
:10758c0039788000b07f8000901680004900de00c2
:10759c000080ea00610060004c00dd0009c0a10021
:1075ac0089047000901680004200de000080ea0022
:1075bc00610060004d00dd0009d0a100890470005d
:1075cc00501680004e00de000080ea006100600072
:1075dc004a00dd00f8bf2f00017880000104640030
:1075ec0008047000101680004600de000080ea00df
:1075fc00610060004b00dd0008b0a10008047000c1
:10760c0008f0a00000c020000000640008003a0050
:10761c000200200063412400e07e8000f17e8000a7
:10762c0023f007000000e0000100340008f0a10086
:10763c000900780031f584008180640022528000ba
:10764c008100610002003a000800a100010037002f
:10765c000800a00051f584008100600022528000d7
:10766c008100610002003a000810a10001003700ff
:10767c000810a00021528000e18f400002003a0067
:10768c000830a10007003700215280008180ea00f9
:10769c000080600002003a000830a10001003700b1
:1076ac000830a0000878880039788800b07f800006
:1076bc0074005000e10f5000090036003078800053
:1076cc00440ab6003007b20003003a000800780004
:1076dc00630060000200320040002000b07f880090
:1076ec00c3528000007880008000d1008080700040
:1076fc00e1c06000420020000219dd0002c17000f0
:10770c00cf00de0081c04000814071004a01de00e4
:10771c0061416100230020000311dd0082c0700074
:10772c004b00de0061406000320020000200dd00f2
:10773c0000c070005aeab7004f04be0000000600fb
:10774c00881f7800c502a900c102a90050ba210007
:10775c0001002000ee020700c102a800d00d20009d
:10776c0001002000ea0207000084eb00c302ab001a
:10777c0007003200102e200001002000e402070058
:10778c000004eb00c302ab00010032000084eb00ec
:10779c0060e6200001002000dd02070008007800f0
:1077ac004f04780000000600889fbe008a9fbe0030
:1077bc000005eb008085fb00483720000900200005
:1077cc00c102a9000ad8de000008a300080032009c
:1077dc008005200001002000cd020700c102a80096
:1077ec00f03a200001002000c90207000600370013
:1077fc000800be00c6020700c102a8003009200024
:10780c0001002000c20207000a05e800e80f55003d
:10781c00ebff3a004f05be004f04be00000006000f
:10782c00889fbe008a9fbe000004eb008044eb00e2
:10783c000a1020001b002000c102a90080052000b6
:10784c0001002000b2020700c102a800400820007d
:10785c0001002000ae020700111680000100650037
:10786c00020032000858dd0080c47400b0322000e1
:10787c0001002000a60207000804e800e80f5400ed
:10788c00edff3a00094078004f05be004f04be00e2
:10789c0000000600881f780000447800a8ff07004d
:1078ac00800078000080eb000100e00009003a0045
:1078bc00c0ccb300bcff070008407800baff07003b
:1078cc000040eb00b8ff07000040eb00b6ff0700dc
:1078dc000000eb004f04780000000600710020004f
:1078ec00e0fe200052020700800078000000eb0050
:1078fc0052ff200012417800814f510001003200ec
:10790c000080eb0000000600889fbe008cff070083
:10791c00800078000080eb000100e00017003a00c6
:10792c0030c3b300a0ff0700d8fe2000e8044400d9
:10793c00bbff0700006c7800890f5400fcff3a0075
:10794c00e6ff0700800078000000eb000100e0007b
:10795c000a003200f0c3b300eeefb700efefb70050
:10796c00f0efb700f1efb700f2efb700f3efb700ad
:10797c00f4efb700f5efb7000080eb004f04be004a
:10798c00000006007100200060fe200028020700a5
:10799c00800078000000eb00d2fe2000124178003d
:1079ac00814f5100010032000080eb000000060006
:1079bc00881f7800d402a900d002a90050ba210077
:1079cc000100200052020700d002a800d00d2000b8
:1079dc00010020004e0207000084eb00d202ab0035
:1079ec0007003200102e2000010020004802070082
:1079fc000004eb00d202ab00010032000084eb006b
:107a0c0060e6200001002000410207000800780019
:107a1c004f04780000000600889fbe008a9fbe00bd
:107a2c000005eb008085fb00483720000900200092
:107a3c00d002a9000ad8de000008a300080032001a
:107a4c00800520000100200031020700d002a800b0
:107a5c00f03a2000010020002d020700060037003c
:107a6c000800be002a020700d002a800300920003e
:107a7c0001002000260207000a05e800e80f550067
:107a8c00ebff3a004f05be004f04be00000006009d
:107a9c00889fbe008a9fbe008c1f78000005eb00fb
:107aac008045eb0088052000090020001c00200008
:107abc00d002a9000800be0015020700d002a800e1
:107acc00400820000100200011020700d202ab0088
:107adc00020032000a60dd0080c57500b032200063
:107aec00010020000a0207000a05e800e80f550013
:107afc00efff3a000b4078004f0678004f05be00b0
:107b0c004f04be0000000600881f78000044780077
:107b1c00a7ff0700800078000080eb000100e00068
:107b2c0003003a0008407800bbff07000000eb00a0
:107b3c004f04780000000600889fbe0030c3b300dd
:107b4c00f1ff07008080eb000000e00018003a0015
:107b5c0058fe2000e8044400cdff0700006c7800bc
:107b6c00890f5400fcff3a0091ff07008080eb0066
:107b7c000000e0000e003a0082ff07008000eb00de
:107b8c000000e0000a003200f0c3b300e6efb700db
:107b9c00e7efb700e8efb700e9efb700eaefb7009f
:107bac00ebefb700ecefb700edefb7008080eb0028
:107bbc00010078004f04be0000000600881f78000a
:107bcc00020478004409dd00cc01de008301710061
:107bdc004401dd0000002000110e200092ef070090
:107bec008000e900c11188000080280008007000a6
:107bfc008011880000402200901188004f0478000a
:107c0c000000060002102000931180008300610028
:107c1c00fdff32000080fb00a01188000000060070
:107c2c00889fbe008044780030c6b30080cf5400db
:107c3c00060036000980fb004206200011000900f6
:107c4c000280d8000043b000eeff07000984fb005f
:107c5c0042062000110009000284d80000017800bf
:107c6c00c00920000091b90002c44400e94f54003f
:107c7c00060036000880fb00a2002000110009005d
:107c8c000280d8000043b000deff070001c3b30040
:107c9c00014244000884fb00a200200011000900ee
:107cac000284d80000017800610f20000191b90016
:107cbc000241420002407800d2ff07004f04be0090
:107ccc0000000600904178000304e0000900320037
:107cdc00021020009411800084006100fdff32002e
:107cec008381fb00a3118800d04178000304e000dd
:107cfc00f8ff3a0000000600904178000304e00011
:107d0c0009003200021020009411800084006100f0
:107d1c00fdff32008381fb00a3118800d041780065
:107d2c000304e000f8ff3a00000006000100e00048
:107d3c000a0032000002eb000310200095118000b5
:107d4c0005816100fdff32003081fb00a21188002b
:107d5c000402e800848f5000f8ff3e00000006008b
:107d6c000100e0000a0032000002eb0003102000ca
:107d7c009511800005816100fdff32003081fb0010
:107d8c00a21188000402e800848f5000f8ff3e0026
:107d9c00000006008000280000328800f0702000ef
:107dac00103288004086a800000006000200fa008d
:107dbc004826ef0080002000008009000000000031
:107dcc00008009000000000060328000f0bf9f00be
:107ddc007fb9970050552500ffb8970000806000d0
:107dec0000004000a1aa2a00810061008100d1009e
:107dfc0081007000f1bf9f007fb9970031332300e1
:107e0c007fb8970081006000c208dd00c0cc2c0058
:107e1c00000061004200de0000807000f0bf9f0097
:107e2c007fb99700f1f020007fb8970081006000c7
:107e3c00c408dd00000f2f00000061004400de00cc
:107e4c0000807000f0bf9f007fb89700c800dd0075
:107e5c004800de0081007000f1bf9f007fb89700e2
:107e6c000080fa0000000600520028002232880030
:107e7c0082aa2e00623288000100e0000500320068
:107e8c00b041780082642000034978008100e90049
:107e9c00fbff3a00c5ff0700000006000600fa00d1
:107eac00889fbe0001047800510028002132880010
:107ebc0081aa2e006132880002e02f00f307200017
:107ecc0002004000e0804900c0bf9f00d1bf9f006e
:107edc00e10f540013003600090820004fb897003a
:107eec00dfb8970018010700b0bf9f003fb897009c
:107efc00403288004fb89700dfb89700620040000e
:107f0c00e0804800c0bf9f00d1bf9f000884e900fb
:107f1c000132800001806400fdff3a00e10f540043
:107f2c00eeff3e00a1ff07004f04be000080fa00e8
:107f3c00000006004427ef00e024ef00e224ef00ed
:107f4c00e424ef0081e0a90083e0a800d4e2a800bb
:107f5c00d0e2a900d0c2a8007040a800cc02a800b2
:107f6c00c802a900c822a800cc82a800c882a90017
:107f7c00c082a800c102a800d002a800c842a80074
:107f8c00d042a800d122a800c522a800c122a90075
:107f9c00c422a800c022a900cc62a800c862a90013
:107fac00d4a2a800d0a2a900d482a800d082a90093
:107fbc00d062a800d422a900d022a900c162a800d6
:107fcc00c9e2a900c962a900c942a800c9a2a900b6
:107fdc00c8e2a800c982a900cde2a900cde2a800a0
:107fec00c9c2a800c0c2a800c542a800c142a900cd
:047ffc00000006007b
:020000040000fa
:10800000f60f00000600000000000000140a000047
:108010004800000000000000160b000002000000f5
:1080200000000000dc0f00000a000000000000005b
:10803000fc0f00000400000000000000a00a000087
:108040003c000000000000000c0f0000d000000009
:10805000000000005c0a0000440000000000000076
:10806000000800001402000000000000dc0a00000c
:108070003a00000000000000180b000002000000a1
:1080800000000000e60f00000800000000000000f3
:10809000ee0f000008000000000000001a0b0000b6
:0c80a000020000000000000000000000d2
:020000040000fa
:1080ac00000fe200060035004295220013732400f5
:1080bc00f4ed070080ed0700500d8800010037003b
:1080cc00aa21ef0090122b00400d88000000060042
:1080dc00c542a8001021ef000c21ef000621ef0093
:1080ec00a421ef00a621ef00200d80000000a100cc
:1080fc006000b300200d8800300d8000f001b3004b
:10810c00300d8800a6e1a900a781a800f03f2e0041
:10811c00a421b6006000b800e07f8800f17f8800e1
:10812c00dfff0700800880000003b3008008880090
:10813c0011e1a80000000600c522a8006022ef0093
:10814c00b0072000101388008820a9009820a900ef
:10815c0061e2a80000000600670060004400dd003a
:10816c00f1f82f00a2058000828060008100700071
:10817c00a10588006042a8006062a8006082a90086
:10818c008820a9009820a800000006008820a900db
:10819c009820a900000006006022ab00feff3a0008
:1081ac0040138800000006006002ab00feff3200a6
:1081bc004013800000000600889fbe008a1f7800d4
:1081cc00010578008080eb00f21f2000820f500028
:1081dc0013003e0008e02f00f907200008044000bf
:1081ec00e0844c00220020000800be006dec07006b
:1081fc0001002800023b800002806000fdff3a0075
:10820c000a0178000800be0081ec0700010028007c
:10821c00023b800002806000fdff3a008000eb0012
:10822c00010078004f0578004f04be0000000600e6
:10823c00881f78000041eb000100e00013003200c1
:10824c008003eb0088002000c6c8b30030427800e1
:10825c0088017800844269000281fb000201d10090
:10826c000508a30001003200064169008301e90002
:10827c00030032000482fb000402d100f5ff37003a
:10828c008703e800878f5000f0ff3e000280fb0060
:10829c004f0478000000060061e2a9006302a80008
:1082ac0062c2a90061e2a8000004e00001003d00e8
:1082bc00f0c7b300c522a800c422a900cc62a80054
:1082cc00c522a9000080fb00b3ff0700b6ff070022
:1082dc00c522a800000006003000200040118800d4
:1082ec0080a0280000118800004c28001011880084
:1082fc004005800000c0a10000d0a00000e0a0005c
:10830c00400588008560a9008580a9000000060052
:020000040000fa
:10831c00f03fb1000180b10006003500ee0309000a
:10832c0000000000403fb1000180b100fbff3d00a8
:10833c001000b000203fb0000200350000800900a2
:08834c00000000000000060023
:020000040000fa
:10835400814178002203200003497800000178005d
:108364009201ba00030078009280ba00000006006f
:108374004022ef00e0072000101288008540a90089
:0c8384009540a90041e2a800000006009e
:020000040000fa
:04839000feff0000ec
:020000040000fa
:04839400ffff0000e7
:020000040000fa
:04839800fdff0000e5
:020000040000fa
:04839c0020ff0000be
:020000040000fa
:0483a0009aff000040
:020000040000fa
:0483a4001bff0000bb
:020000040000fa
:0483a800cdff000005
:020000040000fa
:0483ac00eaff0000e4
:020000040000fa
:0200000400fffb
:04fc00000000000000
:00000001FF
